:100000000C9455000C94680B0C94950B0C94C20B3B
:100010000C94EF0B0C941C0C0C94490C0C94760C67
:100020000C94A30C0C9484060C9431050C94570684
:100030000C94D0050C94FD050C9404050C949A00C6
:100040000C947D000C947D000C9465150C947D003F
:100050000C9400150C947D000C947D000C947D0094
:100060000C942A060C9438070C94B1060C94DE0606
:100070000C940B070C94A3050C9439150C947D007B
:100080000C94D2140C947D000C947D001E1400007E
:100090000100080040000001000400000100080009
:1000A0002000400080000001000411241FBECFEF9B
:1000B000D0E1DEBFCDBF11E0A0E0B1E0EAE0FCE4BA
:1000C00000E00BBF02C007900D92A836B107D9F728
:1000D00017E0A8E6B1E001C01D92AD39B107E1F724
:1000E00010E0CEE8D0E004C02297FE010E94E72590
:1000F000CC38D107C9F70C94F1010C94000086B7F5
:10010000836086BF87B7826087BF87B78E7F87BFD0
:1001100080B7886080BF12BE80E281BF89E083BF64
:1001200080B7992787709070892BD1F786B7836045
:1001300086BF08951F920F920FB60F9211248F93CE
:100140009F93AF93BF938091510790915207A091D5
:100150005307B09154070196A11DB11D809351071B
:1001600090935207A0935307B0935407809155077B
:1001700090915607A0915707B09158070196A11D7D
:10018000B11D8093550790935607A0935707B093DE
:100190005807BF91AF919F918F910F900FBE0F9015
:1001A0001F901895609155077091560780915707D9
:1001B0009091580708959B01AC0112BE109251070F
:1001C00010925207109253071092540780915107D2
:1001D00090915207A0915307B0915407821793074B
:1001E000A407B50799F70895019749F0880F991F5B
:1001F000880F991F0297F8940197F1F77894089562
:10020000E82FE695E695E695A82FBB27613081F4A7
:10021000FF27EE0FFF1FEA5EFE4F0190F081E02DF9
:10022000A770B070A050BF4F80819C91892B10C0E7
:10023000FF27EE0FFF1FEA5EFE4F0190F081E02DD9
:10024000A770B070A050BF4F9C919095808189237A
:1002500080830895A82F20E030E0E82FE695E6950A
:10026000E695FF27EE0FFF1FEC5DFE4F0190F0813A
:10027000E02DBB27A770B070A050BF4F80819C912C
:10028000892311F021E030E0C9010895E82FE695B7
:10029000E695E695A82FBB27613081F4FF27EE0F86
:1002A000FF1FE85FFE4F0190F081E02DA770B07056
:1002B000A050BF4F80819C91892B10C0FF27EE0F6B
:1002C000FF1FE85FFE4F0190F081E02DA770B07036
:1002D000A050BF4F9C919095808189238083089581
:1002E000E82FFF27613051F4EE0FFF1FEA5EFE4F4B
:1002F0000190F081E02D8FEF80830895EE0FFF1FB6
:10030000EA5EFE4F0190F081E02D10820895E82F03
:10031000FF27EE0FFF1FEC5DFE4F0190F081E02DF7
:10032000808199270895E82FFF27EE0FFF1FE85FD0
:10033000FE4F0190F081E02D6083089510926100DE
:100340001092620080E487B987EE86B9089597B16C
:10035000907E8770982B97B90895349BFECF0895AF
:10036000349A089584B195B10895CF92DF92EF92B7
:10037000FF920F931F93CF93DF93E82EF62EC42E98
:10038000D22EC0E0D0E007E010E06D2D7727CC2022
:1003900039F40C2E02C0759567950A94E2F706C0F1
:1003A000002E02C0759567950A94E2F761708E2D54
:1003B0000E94460161E08F2D0E94460160E08F2D72
:1003C0000E944601219601501040C830D105E9F63F
:1003D000DF91CF911F910F91FF90EF90DF90CF9021
:1003E0000895CFEFD0E1DEBFCDBF0E947F00E09146
:1003F0001C01F0911D018FEF8083E0911E01F091AF
:100400001F01808378940E945D1A0E94561AFDCFC6
:10041000982F80913201813051F410926100109236
:10042000620080E487B987EE86B91092320187B105
:10043000807E9770892B87B9349A349BFECF84B124
:1004400095B10895853031F48FB580688FBD8FB533
:100450008F7B07C0843039F48FB580628FBD8FB534
:100460008F7E8FBD0895833031F48FB588608FBD46
:100470008FB58B7FF6CF823049F480918B008068F6
:1004800080938B0080918B008F7B0AC0813059F460
:1004900080918B00806280938B0080918B008F7E97
:1004A00080938B000895882351F480918B0088609D
:1004B00080938B0080918B008B7F80938B000895BD
:1004C0008EB5887F83608EBD1DBC1CBC87B78460E1
:1004D00087BF089585B5887F826085BD14BC87B7C6
:1004E000806487BF109261071092620710926307C1
:1004F0001092640710925D0710925E0710925F07DA
:10050000109260070895EAE8F0E08081887F8360B8
:1005100080831092890010928800EDE7F0E08081DE
:100520008460808308959EB5987F982B9EBD089522
:1005300095B5987F982B95BD0895EAE8F0E09081F5
:10054000987F982B908308958E3040F4E82FFF27F2
:10055000EE0FFF1FE759FE4F718360830895E3B7E5
:10056000FF27E770F070EE0FFF1FE257FF4F8591F6
:1005700094910895EEB5FF27E770F070EE0FFF1F1E
:10058000E257FF4F859194910895E5B5FF27E770F5
:10059000F070EE0FFF1FE257FF4F85919491089581
:1005A000E0918A00FF27E770F070EE0FFF1FE2571F
:1005B000FF4F8591949108958E3040F4E82FFF27E6
:1005C000EE0FFF1FE759FE4F118210820895DF9250
:1005D000EF92FF920F931F937C01D4B410925907AE
:1005E00010925A0710925B0710925C070E94C50296
:1005F0009C014427552760E074E284EF90E00E945C
:10060000B625293B8DE8380786E0480780E0580783
:1006100098F481E1E81687E2F80670F4B7018827BC
:1006200099270E94622528EE33E040E050E00E94C6
:10063000942579018A0110C000271127CA01B90148
:1006400028EE33E040E050E00E949425C801B70155
:100650000E9462257B018C018091590790915A0775
:10066000A0915B07B0915C0724B5BA2FA92F982FF2
:100670008827332744275527822B932BA42BB52B70
:10068000A80197012D0D311D411D511D82179307A2
:10069000A407B50708F31F910F91FF90EF90DF902B
:1006A00008951092690710926A0710926B071092D2
:1006B0006C071092650710926607109267071092F8
:1006C000680708956091690770916A0780916B07C8
:1006D00090916C0708951092610710926207109232
:1006E00063071092640710925D0710925E071092E4
:1006F0005F0710926007089560916107709162072B
:1007000080916307909164070895893031F48FB523
:1007100082608FBD8FB58E7F0AC08A3019F48FB585
:10072000826002C08FB58D7F8FBD8FB581608FBD18
:100730001BBC1ABC19BC18BC10927900109278002E
:1007400008958FB580688FBD8FB58F7B8FBD08955D
:100750008FB580628FBD8FB58F7E8FBD08958FB5A9
:1007600088608FBD8FB58B7F8FBD08958FB58F77D4
:100770008FBD8FB58F7B8FBD08958FB58F7D8FBD5A
:100780008FB58F7E8FBD08958FB5877F8FBD8FB555
:100790008B7F8FBD0895292F33272BBD8ABD0895E8
:1007A000292F332729BD88BD0895292F332720936A
:1007B0007900809378000895893049F480918B0006
:1007C000826080938B0080918B008E7F0EC08A3078
:1007D00021F480918B00826003C080918B008D7F1B
:1007E00080938B0080918B00816080938B001092AE
:1007F000870010928600109285001092840010925B
:100800008300109282000895EBE8F0E08081806818
:10081000808380818F7B80830895EBE8F0E0808186
:100820008062808380818F7E80830895EBE8F0E092
:1008300080818860808380818B7F80830895EBE84E
:10084000F0E080818F77808380818F7B8083089523
:10085000EBE8F0E080818F7D808380818F7E8083D4
:100860000895EBE8F0E08081877F808380818B7F33
:1008700080830895292F3327209387008093860053
:100880000895292F332720938500809384000895AD
:10089000292F332720938300809382000895EF92BD
:1008A000FF921F93CF93DF93182F7B018D31B0F010
:1008B0008F3111F413E014C08E3111F414E010C024
:1008C0008D3109F497C0853211F410E03CC08432B8
:1008D00011F411E038C0833219F48EC0833098F1DE
:1008E0008091680186FD0BC00E94600278948AE0C6
:1008F0000E948503809168018064809368018091E3
:100900006801C12FDD2799270C2E02C09595879588
:100910000A94E2F780FD4AC087B3FE01ED5CFE4F0A
:100920009081892B87BB812F0E9422022091680130
:1009300081E090E002C0880F991FCA95E2F7282B4A
:100940002093680133C08091680187FD0BC00E942D
:10095000830278948AE00E94DC03809168018068B9
:100960008093680180916801C12FDD2799270C2EA3
:1009700002C0959587950A94E2F780FD1DC082B16B
:10098000FE01ED5CFE4F9081892B82B9812F0E9480
:1009900022022091680181E090E002C0880F991F37
:1009A000CA95E2F7282B2093680106C0153021F480
:1009B000C7010E94CB0322C0143021F4C7010E945A
:1009C000D0031CC0133021F4C7010E94D50316C008
:1009D000123021F4C7010E943A0410C0113021F4F2
:1009E000C7010E9441040AC0112341F4C7010E94BB
:1009F000480404C015E074CF12E0A5CFDF91CF9179
:100A00001F91FF90EF9008951F920F920FB60F92D3
:100A100011242F933F934F935F936F937F938F9303
:100A20009F93AF93BF93EF93FF9380916D0190914C
:100A30006E01892B29F0E0916D01F0916E0109950D
:100A4000FF91EF91BF91AF919F918F917F916F91A6
:100A50005F914F913F912F910F900FBE0F901F907C
:100A600018951F920F920FB60F9211242F933F9358
:100A70004F935F936F937F938F939F93AF93BF93A6
:100A8000EF93FF938091610790916207A0916307B4
:100A9000B09164070196A11DB11D809361079093E9
:100AA0006207A0936307B0936407809161079091F8
:100AB0006207A0916307B09164070097A105B10593
:100AC00099F480915D0790915E07A0915F07B091C6
:100AD00060070196A11DB11D80935D0790935E078D
:100AE000A0935F07B09360078091590790915A07D0
:100AF000A0915B07B0915C070196A11DB11D809389
:100B0000590790935A07A0935B07B0935C078091B5
:100B1000770190917801892B29F0E0917701F0918C
:100B200078010995FF91EF91BF91AF919F918F91BE
:100B30007F916F915F914F913F912F910F900FBED9
:100B40000F901F9018951F920F920FB60F921124BD
:100B50002F933F934F935F936F937F938F939F93C5
:100B6000AF93BF93EF93FF9380917B0190917C01B2
:100B7000892B29F0E0917B01F0917C010995FF918F
:100B8000EF91BF91AF919F918F917F916F915F9105
:100B90004F913F912F910F900FBE0F901F9018957E
:100BA0001F920F920FB60F9211242F933F934F93E2
:100BB0005F936F937F938F939F93AF93BF93EF93C5
:100BC000FF9380916F0190917001892B29F0E09142
:100BD0006F01F09170010995FF91EF91BF91AF9175
:100BE0009F918F917F916F915F914F913F912F9145
:100BF0000F900FBE0F901F9018951F920F920FB677
:100C00000F9211242F933F934F935F936F937F9392
:100C10008F939F93AF93BF93EF93FF938091710155
:100C200090917201892B29F0E0917101F09172018C
:100C30000995FF91EF91BF91AF919F918F917F9116
:100C40006F915F914F913F912F910F900FBE0F9039
:100C50001F9018951F920F920FB60F9211242F9389
:100C60003F934F935F936F937F938F939F93AF9334
:100C7000BF93EF93FF938091730190917401892B3F
:100C800029F0E0917301F09174010995FF91EF91C2
:100C9000BF91AF919F918F917F916F915F914F9194
:100CA0003F912F910F900FBE0F901F9018951F929C
:100CB0000F920FB60F9211242F933F934F935F9390
:100CC0006F937F938F939F93AF93BF93EF93FF9314
:100CD0008091750190917601892B29F0E091750141
:100CE000F09176010995FF91EF91BF91AF919F919E
:100CF0008F917F916F915F914F913F912F910F90C5
:100D00000FBE0F901F9018951F920F920FB60F9263
:100D100011242F933F934F935F936F937F938F9300
:100D20009F93AF93BF93EF93FF938091790190913D
:100D30007A01892B29F0E0917901F0917A010995E6
:100D4000FF91EF91BF91AF919F918F917F916F91A3
:100D50005F914F913F912F910F900FBE0F901F9079
:100D600018951F920F920FB60F9211242F933F9355
:100D70004F935F936F937F938F939F93AF93BF93A3
:100D8000EF93FF9380917D0190917E01892B29F053
:100D9000E0917D01F0917E010995FF91EF91BF9166
:100DA000AF919F918F917F916F915F914F913F9103
:100DB0002F910F900FBE0F901F9018951F920F92BA
:100DC0000FB60F9211242F933F934F935F936F931E
:100DD0007F938F939F93AF93BF93EF93FF938091F4
:100DE000710190917201892B29F0E0917101F091CC
:100DF00072010995FF91EF91BF91AF919F918F91F2
:100E00007F916F915F914F913F912F910F900FBE06
:100E10000F901F9018951F920F920FB60F921124EA
:100E20002F933F934F935F936F937F938F939F93F2
:100E3000AF93BF93EF93FF938091810190918201D3
:100E4000892B29F0E0918101F09182010995FF91B0
:100E5000EF91BF91AF919F918F917F916F915F9132
:100E60004F913F912F910F900FBE0F901F901895AB
:100E70001F920F920FB60F9211242F933F934F930F
:100E80005F936F937F938F939F93AF93BF93EF93F2
:100E9000FF938091830190918401892B29F0E09147
:100EA0008301F09184010995FF91EF91BF91AF917A
:100EB0009F918F917F916F915F914F913F912F9172
:100EC0000F900FBE0F901F901895E9E6F1E0118288
:100ED0001082329681E0E538F807C9F70E94600277
:100EE0000E946A020E948302789408958FB58D7FD4
:100EF0008FBD8FB58E7F8FBD8FB58F778FBD8FB52F
:100F00008F7B8FBD8FB58F7D8FBD8FB58F7E8FBD52
:100F10008FB5877F8FBD8FB58B7F8FBD0895EBE831
:100F2000F0E080818D7F808380818E7F80838081CF
:100F30008F77808380818F7B808380818F7D80838A
:100F400080818F7E80838081877F808380818B7F7B
:100F5000808308956F927F928F929F92AF92BF92FB
:100F6000CF92DF92EF92FF921F93CF93DF93162FD2
:100F7000E82FE695E695E695FF27EE0FFF1FEC5D5F
:100F8000FE4FA080B18090EE692E9FEF792E6A0C03
:100F90007B1CC82FDD27C770D07081E0882E912C74
:100FA0000C2E02C0880C991C0A94E2F7CA01B90100
:100FB00020E034E244EF50E00E9462250E94942534
:100FC00069017A0180E090E0112311F081E090E066
:100FD00002C0880F991FCA95E2F720E030E040E098
:100FE00050E0F501A82FBB270EC02C153D054E057E
:100FF0005F0529F420E030E040E050E02BC02F5F97
:101000003F4F4F4F5F4FE30188A1682F772768213B
:1010100079216A177B0749F720E030E040E050E093
:1010200004C02F5F3F4F4F4F5F4F8081992788212A
:10103000992186179707A9F3CA01B90124E130E085
:1010400040E050E00E94622527E130E040E050E0BF
:101050000E949425CA01B901DF91CF911F91FF90A1
:10106000EF90DF90CF90BF90AF909F908F907F9048
:101070006F90089520E432E44FE050E00E94AA0708
:1010800008959C01892B61F0809194018160809387
:101090009401220F331F30939101209390010BC0D4
:1010A000809194018E7F8093940182E090E09093F0
:1010B0009101809390018FB58F778FBD8FB580643C
:1010C0008FBD8AB59BB52091920130919301820F1B
:1010D000931F9BBD8ABD87B7806187BF08959C0120
:1010E000892B61F080918F01816080938F01220FA5
:1010F000331F30938C0120938B010BC080918F01A3
:101100008E7F80938F0182E090E090938C0180939A
:101110008B018FB58F7D8FBD8FB580618FBD88B5F9
:1011200099B520918D0130918E01820F931F99BD49
:1011300088BD87B7886087BF08959C01892B61F0BF
:1011400080918A01816080938A01220F331F30933E
:101150008701209386010BC080918A018E7F809346
:101160008A0182E090E090938701809386018FB599
:10117000877F8FBD8FB584608FBD809178009091FF
:1011800079002091880130918901820F931F9093FB
:1011900079008093780080917D00816080937D004C
:1011A0000895853021F4CB010E94410808958430D0
:1011B00021F4CB010E946F080895833019F4CB010C
:1011C0000E949D080895809194018160809394010C
:1011D0001092910110929001089580918F01816089
:1011E00080938F0110928C0110928B010895809151
:1011F0008A01816080938A01109287011092860192
:10120000089580919001909191010196969587950E
:10121000089580918B0190918C0101969695879508
:101220000895809186019091870101969695879502
:1012300008958091900190919101892BC1F08AB518
:101240009BB52091920130919301820F931F9BBD1A
:101250008ABD8091940180FF13C08091900190918C
:1012600091010197909391018093900108958FB51A
:101270008F778FBD8FB58F7B8FBD87B78F7E87BFF1
:10128000089580918B0190918C01892BC1F088B5D4
:1012900099B520918D0130918E01820F931F99BDD8
:1012A00088BD80918F0180FF13C080918B01909148
:1012B0008C01019790938C0180938B0108958FB5D9
:1012C0008F7D8FBD8FB58F7E8FBD87B7877F87BF9F
:1012D00008958091860190918701892BE1F080919A
:1012E0007800909179002091880130918901820FD6
:1012F000931F909379008093780080918A0180FFFA
:1013000015C0809186019091870101979093870184
:101310008093860108958FB5877F8FBD8FB58B7FB2
:101320008FBD80917D008E7F80937D000895EF9228
:10133000FF920F931F937C010E94BA02AA27BB273A
:1013400000271127EE0CFF1C001F111FBC01CD014F
:10135000A80197010E9462259B01AC0160E074E244
:1013600084EF90E00E9494253093890120938801B6
:101370001F910F91FF90EF900895EF92FF920F93BE
:101380001F937C010E94BA02AA27BB2700271127BE
:10139000EE0CFF1C001F111FBC01CD01A80197011D
:1013A0000E9462259B01AC0160E074E284EF90E052
:1013B0000E94942530938E0120938D011F910F91EF
:1013C000FF90EF900895EF92FF920F931F937C018F
:1013D0000E94BA02AA27BB2700271127EE0CFF1C88
:1013E000001F111FBC01CD01A80197010E946225B9
:1013F0009B01AC0160E074E284EF90E00E949425D0
:1014000030939301209392011F910F91FF90EF90E1
:101410000895853021F4CB010E94E30908958430BA
:1014200021F4CB010E94BD090895833019F4CB014A
:101430000E949709089510929101109290011092C4
:101440008C0110928B0110928701109286018FB54A
:101450008F778FBD8FB58F7B8FBD8FB58F7D8FBD04
:101460008FB58F7E8FBD8FB5877F8FBD8FB58B7FFB
:101470008FBD83E00E94DC0284E00E94DC0285E0F4
:101480000E94DC0208950E9460020E94760710927A
:10149000940110928F0110928A0110929101109282
:1014A000900110928C0110928B0110928701109282
:1014B000860180E090E8909393018093920190934D
:1014C0008E0180938D01909389018093880169E159
:1014D00079E083E00E94A40261E479E084E00E9464
:1014E000A40269E679E085E00E94A4020895809153
:1014F000850186FD07C00E94430A809185018064B2
:10150000809385010895CF92DF92EF92FF921F930F
:10151000182F7B016A010E94770AB701812F0E9470
:10152000090AB601812F0E94D1081F91FF90EF9008
:10153000DF90CF90089540E050E00E94830A089524
:10154000853029F480919001909191010DC08430F3
:1015500029F480918B0190918C0106C0833041F475
:1015600080918601909187010196969587950895BF
:101570000895853051F480919401816080939401A5
:1015800010929101109290010895843051F480914D
:101590008F01816080938F0110928C0110928B01DA
:1015A0000895833049F480918A01816080938A0193
:1015B00010928701109286010895833089F184305A
:1015C00028F48130B9F0823000F50BC08530E1F1AC
:1015D000853098F1863009F440C0873009F052C058
:1015E00046C080916A008C7F862B80936A0089B701
:1015F00081603BC080916A00837F660F660F862BF7
:1016000080936A0089B7826030C080916A008F7CC5
:101610006295607F862B80936A0089B7846025C0BD
:1016200080916A008F736295660F660F607C862BCF
:1016300080936A0089B7886018C08AB78C7F862B30
:101640008ABF89B7806111C08AB7837F660F660F32
:10165000862B8ABF89B7806208C08AB78F7C629563
:10166000607F862B8ABF89B7806489BF08958AB757
:101670008F736295660F660F607C862B8ABF89B771
:10168000806889BF0895883058F4E82FFF27EE0F4F
:10169000FF1FEB56FE4F71836083642F0E94DD0AAB
:1016A00008958830A0F429B7E82FFF2781E090E063
:1016B0000E2E02C0880F991F0A94E2F78095282306
:1016C00029BFEE0FFF1FEB56FE4F118210820895C7
:1016D0001F920F920FB60F9211242F933F934F93A7
:1016E0005F936F937F938F939F93AF93BF93EF938A
:1016F000FF938091950190919601892B29F0E091BB
:101700009501F09196010995FF91EF91BF91AF91ED
:101710009F918F917F916F915F914F913F912F9109
:101720000F900FBE0F901F9018951F920F920FB63B
:101730000F9211242F933F934F935F936F937F9357
:101740008F939F93AF93BF93EF93FF9380919701F4
:1017500090919801892B29F0E0919701F0919801DF
:101760000995FF91EF91BF91AF919F918F917F91DB
:101770006F915F914F913F912F910F900FBE0F90FE
:101780001F9018951F920F920FB60F9211242F934E
:101790003F934F935F936F937F938F939F93AF93F9
:1017A000BF93EF93FF938091990190919A01892BB8
:1017B00029F0E0919901F0919A010995FF91EF913B
:1017C000BF91AF919F918F917F916F915F914F9159
:1017D0003F912F910F900FBE0F901F9018951F9261
:1017E0000F920FB60F9211242F933F934F935F9355
:1017F0006F937F938F939F93AF93BF93EF93FF93D9
:1018000080919B0190919C01892B29F0E0919B0193
:10181000F0919C010995FF91EF91BF91AF919F913C
:101820008F917F916F915F914F913F912F910F9089
:101830000FBE0F901F9018951F920F920FB60F9228
:1018400011242F933F934F935F936F937F938F93C5
:101850009F93AF93BF93EF93FF9380919D019091DE
:101860009E01892B29F0E0919D01F0919E0109953F
:10187000FF91EF91BF91AF919F918F917F916F9168
:101880005F914F913F912F910F900FBE0F901F903E
:1018900018951F920F920FB60F9211242F933F931A
:1018A0004F935F936F937F938F939F93AF93BF9368
:1018B000EF93FF9380919F019091A001892B29F0D4
:1018C000E0919F01F091A0010995FF91EF91BF91E7
:1018D000AF919F918F917F916F915F914F913F91C8
:1018E0002F910F900FBE0F901F9018951F920F927F
:1018F0000FB60F9211242F933F934F935F936F93E3
:101900007F938F939F93AF93BF93EF93FF938091B8
:10191000A1019091A201892B29F0E091A101F09100
:10192000A2010995FF91EF91BF91AF919F918F9186
:101930007F916F915F914F913F912F910F900FBECB
:101940000F901F9018951F920F920FB60F921124AF
:101950002F933F934F935F936F937F938F939F93B7
:10196000AF93BF93EF93FF938091A3019091A40154
:10197000892B29F0E091A301F091A4010995FF9131
:10198000EF91BF91AF919F918F917F916F915F91F7
:101990004F913F912F910F900FBE0F901F90189570
:1019A0002F923F924F925F926F927F928F929F926F
:1019B000AF92BF92CF92DF92EF92FF920F931F935D
:1019C000CF93DF93CDB7DEB724970FB6F894DEBF81
:1019D0000FBECDBF3B014C0119012A01A6019501A3
:1019E000698D7A8D8B8D9C8D0E94FA2369837A8311
:1019F0008B839C83A2019101C401B3010E94FA234D
:101A00003B014C01A2019101C801B7010E94FA23D8
:101A10009B01AC01C401B3010E943D249B01AC01B8
:101A200069817A818B819C810E941A259B01AC017E
:101A3000C601B5010E94FB2324960FB6F894DEBFC1
:101A40000FBECDBFDF91CF911F910F91FF90EF900F
:101A5000DF90CF90BF90AF909F908F907F906F90CE
:101A60005F904F903F902F900895EF92FF920F93C9
:101A70001F937B018C0120E030E040E050E00E94A9
:101A8000AA24882329F460E070E080E090E014C08C
:101A90000E943023AA2797FDA095BA2FBC01CD0143
:101AA0000E94A02420E03EEF4FEF56E40E943D2428
:101AB000A80197010E941A251F910F91FF90EF90A6
:101AC0000895AF92BF92CF92DF92EF92FF920F9361
:101AD0001F937B018C0159016A010E94AD2487FF8D
:101AE00010C0A8019701C601B5010E94FA230E9407
:101AF000350D9B01AC01C801B7010E94FB237B019E
:101B00008C01C801B7011F910F91FF90EF90DF90FA
:101B1000CF90BF90AF900895009711F00E943523A9
:101B20000895FC0177FD0CC08281938168177907C5
:101B300038F40190F081E02DE60FF71F808101C09D
:101B400080E0992787FD90950895FC01828193811B
:101B50006817790730F40190F081E02DE60FF71F48
:101B600040830895FC01808191810895FC0180816A
:101B700091810895DC0120E030E008C0ED91FC91F6
:101B80001197E20FF31F10822F5F3F4FFD018481F9
:101B900095812817390790F30895EF92FF920F93DC
:101BA0001F93CF93DF937C01C0E0D0E00FC0F7011B
:101BB000008111810C0F1D1FF8018081992787FD7D
:101BC00090950E94F125F80180832196F70182818A
:101BD0009381C817D90758F3DF91CF911F910F91C7
:101BE000FF90EF900895EF92FF920F931F93CF9382
:101BF000DF937C01C0E0D0E00FC0F70100811181CC
:101C00000C0F1D1FF8018081992787FD90950E9478
:101C1000EB25F80180832196F70182819381C81713
:101C2000D90758F3DF91CF911F910F91FF90EF905B
:101C300008950F931F93FC01062F142F0190F0813C
:101C4000E02D01C01083602F772767FD7095CF01CD
:101C50000E945D23FC01892BA9F71F910F91089524
:101C6000CF93DF93FC01828193814817590760F479
:101C7000C081D181772767FD7095CE01840F951FB4
:101C80000E945D23009719F48FEF9FEF02C08C1B19
:101C90009D0BDF91CF91089540E050E00E94300EFF
:101CA0000895CF93DF93DC01FB01EC012A813B8196
:101CB000828193812817390718F4C0E0D0E010C062
:101CC000C0E0D0E060817181281B390B8D919C911F
:101CD000820F931F0E946923892B11F4C1E0D0E089
:101CE000CE01DF91CF9108951F93FC0110E0808118
:101CF00091810E946923892B09F411E0812F992792
:101D00001F9108950F931F93CF93DF938C01DC01F4
:101D1000CD91DC91DE0101C011968C918930E1F307
:101D20008D30D1F38A30C1F38032B1F38131A1F328
:101D3000FE0101900020E9F73197EC1BFD0BAF018C
:101D4000BD01CE010E944023E801E881F981DF0155
:101D50000D900020E9F7AE1BBF0B129702C0108256
:101D60001197E801E881F981EA0FFB1F8081893032
:101D7000B1F38D30A1F38A3091F3803281F3813158
:101D800071F3DF91CF911F910F910895EF92FF9220
:101D90000F931F938C017B01CB0101960E94E321DD
:101DA000F80191838083F582E48213821282C80154
:101DB0000E94BA0D1F910F91FF90EF900895EF923E
:101DC000FF920F931F938C017B01CB0101960E9420
:101DD000E321F80191838083F582E48213821282E9
:101DE000C8010E94BA0D1F910F91FF90EF900895C6
:101DF000AF92BF92CF92DF92EF92FF920F931F9319
:101E00007B018C015A0181E290E00E94E3216C0188
:101E10009501AC01C801B7010E94AD23C6011F9115
:101E20000F91FF90EF90DF90CF90BF90AF9008950B
:101E3000AB01AA2797FDA095BA2FBC01CD010E9446
:101E4000F80E0895CF93DF93DC01FB019A014281E4
:101E50005381EC018A819B81841B950B8217930728
:101E600018F4C0E0D0E00EC0C0E0D0E06081718125
:101E70008D919C91820F931F0E947323892B11F4E3
:101E8000C1E0D0E0CE01DF91CF910895CF93DF93F1
:101E9000DC01FB01EC012A813B81828193812817BF
:101EA000390718F480E090E006C040E050E0CD0132
:101EB0000E94220F9927DF91CF910895CF93DF934E
:101EC000FC01DB01828193814817590758F4C081D6
:101ED000D1816D917C91CE01840F951F0E9490233A
:101EE000009719F48FEF9FEF02C08C1B9D0BDF91C1
:101EF000CF91089540E050E00E945E0F0895FC01EC
:101F0000808191810E949023009711F081E090E000
:101F100008950F931F93CF93DF93EC014A815B8168
:101F20004F5F5F4F888199810E948123E881F98109
:101F30008A819B81E80FF91F1082DF91CF911F9159
:101F40000F910895EF92FF920F931F938C017B01E5
:101F5000FB0182819381F80195838483938382833B
:101F600001960E94E321F80191838083C8010E94B9
:101F7000BA0DF70160817181C8010E94890F1F911C
:101F80000F91FF90EF900895EF92FF920F931F93A0
:101F90008C017B01FB0182819381F801958384830D
:101FA0009383828301960E94E321F80191838083C9
:101FB000C8010E94BA0DF70160817181C8010E94B9
:101FC000890F1F910F91FF90EF900895EF92FF926C
:101FD0000F931F93CF93DF938C017B01672B21F429
:101FE00089E3E82E81E0F82EF70101900020E9F75F
:101FF0003197EE19FF09E801FB83EA83FD83EC8347
:10200000CF0101960E94E32199838883C8010E9431
:10201000BA0DB701C8010E94890FDF91CF911F91BE
:102020000F91FF90EF900895CF92DF92EF92FF9281
:102030001F93CF93DF936C017B01E90124173507D0
:1020400014F4EA01A901F701828193818C179D079D
:1020500020F481E090E00E940426D701ED91FC91EC
:102060001197EC0FFD1F108110826D917C91640F10
:10207000751FC6010E94E60FD701ED91FC91EC0F90
:10208000FD1F1083C601DF91CF911F91FF90EF904C
:10209000DF90CF9008950F931F938C01FB01228155
:1020A00033810E941410C8011F910F910895EF927F
:1020B000FF920F931F93CF93DF93CDB7DEB7269791
:1020C0000FB6F894DEBF0FBECDBF7C01FB0160816F
:1020D00071818E010F5F1F4FC8010E94E60FB8018A
:1020E000C7010E945710992726960FB6F894DEBFB5
:1020F0000FBECDBFDF91CF911F910F91FF90EF9059
:102100000895EF92FF920F931F93CF93DF938C016B
:102110007B01672B21F499E3E92E91E0F92EF70179
:1021200001900020E9F73197EE19FF09E801FB83E0
:10213000EA83FD83EC83CF0101960E94E32199831A
:102140008883C8010E94BA0DB701C8010E94890F97
:10215000DF91CF911F910F91FF90EF900895FF9223
:102160000F931F93CF93DF93EC01F62E2A813B81CF
:102170008C819D8128173907A1F408811981C90133
:102180000196880F991F9D838C8301960E94E321FD
:1021900099838883B801CE010E94890FC8010E94EB
:1021A0008622EA81FB81A881B981AE0FBF1FFC9214
:1021B0003196FB83EA8388819981E80FF91F1082A9
:1021C000CE01DF91CF911F910F91FF9008950E9452
:1021D000AF1008950F931F93CF93DF93EC018B0102
:1021E000672B11F409E311E0F80101900020E9F7F1
:1021F0003197E01BF10BFB83EA838C819D818E1765
:102200009F0768F4FD83EC83888199810E94862270
:102210008A819B8101960E94E32199838883CE0164
:102220000E94BA0DB801CE010E94890FDF91CF91B3
:102230001F910F9108950F931F93CF93DF93EC019C
:102240008B018617970729F1FB01228133818C814D
:102250009D818217930770F4888199810E9486225C
:10226000F801828193819D838C8301960E94E321F2
:1022700099838883F801828193819B838A83CE012D
:102280000E94BA0DF80160817181CE010E94890F10
:102290008E01C801DF91CF911F910F910895EF92A8
:1022A000FF920F931F93CF93DF93CDB7DEB726979F
:1022B0000FB6F894DEBF0FBECDBF7C0160E170E0C9
:1022C0008E010F5F1F4FC8010E94C60EB801C701E3
:1022D0000E941B1126960FB6F894DEBF0FBECDBF2D
:1022E000DF91CF911F910F91FF90EF900895EF92A2
:1022F000FF920F931F93CF93DF93CDB7DEB726974F
:102300000FB6F894DEBF0FBECDBF7C0160E170E078
:102310008E010F5F1F4FC8010E94C60EB801C70192
:102320000E941B1126960FB6F894DEBF0FBECDBFDC
:10233000DF91CF911F910F91FF90EF900895EF9251
:10234000FF920F931F93CF93DF93EC017B012A81C0
:102350003B81FB0182819381280F391F3B832A83B4
:102360008C819D818217930788F4088119813D83B0
:102370002C83C90101960E94E32199838883B801C7
:10238000CE010E94890FC8010E948622F701608158
:102390007181888199810E945223E881F9818A8123
:1023A0009B81E80FF91F1082CE01DF91CF911F9121
:1023B0000F91FF90EF9008950E949F110895EF9262
:1023C000FF920F931F93CF93DF93EC017B01672B59
:1023D00021F439E3E32E31E0F32E2A813B81F7012A
:1023E00001900020E9F73197EE19FF092E0F3F1FEA
:1023F0003B832A838C819D818217930788F408810F
:1024000019813D832C83C90101960E94E3219983A0
:102410008883B801CE010E94890FC8010E948622DC
:10242000B701888199810E945223E881F9818A81CC
:102430009B81E80FF91F1082CE01DF91CF911F9190
:102440000F91FF90EF900895EF92FF920F931F93DB
:102450007C01CB01BA01A9010E94F80E8C01BC01DC
:10246000C7010E94DF11C8010E948622C7011F9187
:102470000F91FF90EF9008950F931F938C012AE026
:1024800030E00E942412C8011F910F9108950F930C
:102490001F938C01AB01662757FD6095762F2AE0CC
:1024A00030E00E942412C8011F910F9108950F93EC
:1024B0001F938C019A01882777FD8095982FAB0197
:1024C000BC01C8010E942412C8011F910F910895F8
:1024D0000F931F938C012AE030E00E942412C80160
:1024E0001F910F9108950F931F938C01AB016627E5
:1024F00057FD6095762F2AE030E00E942412C80133
:102500001F910F9108950E94DF110895FC01662329
:1025100011F41082089581E080830895FC01662300
:1025200011F41082089581E080830895CF93DF93A2
:10253000CDB7DEB721970FB6F894DEBF0FBECDBF83
:10254000FC01698341E0BE016F5F7F4F80810E9483
:102550008E1521960FB6F894DEBF0FBECDBFDF916A
:10256000CF910895CF93DF93CDB7DEB721970FB604
:10257000F894DEBF0FBECDBFFC01698341E0BE0110
:102580006F5F7F4F80810E948E1521960FB6F89461
:10259000DEBF0FBECDBFDF91CF9108956F927F92C6
:1025A0008F929F92AF92BF92CF92DF92EF92FF9263
:1025B0000F931F93CF93DF93CDB7DEB7A0970FB6DE
:1025C000F894DEBF0FBECDBF3C017A018B014115EF
:1025D00051056105710521F460E30E94B21234C017
:1025E0004E010894811C911CA22EBB24CC24DD2416
:1025F000C801B701A60195010E949425F4016193D9
:102600004F01C801B701A60195010E9494257901E7
:102610008A01211531054105510551F7CE01019679
:102620008401081B190B0CC0FE01E00FF11F618132
:102630006A3010F4605D01C0695CC3010E94B2128F
:102640000150104017FFF0CFA0960FB6F894DEBFF0
:102650000FBECDBFDF91CF911F910F91FF90EF90F3
:10266000DF90CF90BF90AF909F908F907F906F90B2
:1026700008950F931F938C016DE00E94B2126AE0DF
:10268000C8010E94B2121F910F9108950F931F93DA
:102690008C010E949612C8010E9439131F910F915C
:1026A00008950F931F938C010E94B212C8010E94DB
:1026B00039131F910F910895EF92FF920F931F937B
:1026C000CF93DF93EC017A018B0177FF0BC06DE2B2
:1026D0000E94B21210950095F094E094E11CF11C58
:1026E000011D111D2AE0B801A701CE010E94CE12E2
:1026F000DF91CF911F910F91FF90EF9008950F936D
:102700001F938C010E945C13C8010E9439131F9112
:102710000F910895AB01662757FD6095762F0E94B3
:102720007F1308952115310521F4642F0E94B21200
:1027300008952A30310519F40E945C1308950E940F
:10274000CE1208950F931F938C010E949213C8011B
:102750000E9439131F910F910895AB01662757FD11
:102760006095762F0E945C130895CF92DF92EF92CE
:10277000FF920F931F93CF93DF936C01EB010990AE
:102780000020E9F72197C61BD70BEE24FF248B010D
:102790000BC041E0B801F60180810E948E150894BB
:1027A000E11CF11C0F5F1F4FEC16FD0694F3DF9147
:1027B000CF911F910F91FF90EF90DF90CF900895F0
:1027C0000F931F938C010E94B513C8010E94391307
:1027D0001F910F9108950F931F938C01CB010E94BD
:1027E000B60DBC01C8010E94B5131F910F91089549
:1027F0000F931F938C010E94EB13C8010E943913A1
:102800001F910F910895FC0180810E942D1508955C
:10281000FC0180810E94C41499270895FC018081E5
:102820000E94DA150895019741F46F5F7F4F29F4F4
:102830001092A50181E08093A60108956FEF7FEFCC
:1028400081E090E00E9413140895FC0157834683B1
:1028500011861086718360837383628375836483BA
:102860000895DC01FC012085318586819781281738
:102870003907D8F4ED91FC91119761931196FC936F
:10288000EE93FD0180859185019691878087448133
:10289000558186819781840F951F2D913C911197C9
:1028A0002817390710F04D935C930895CF93DF9369
:1028B000DC01EC0188859985009719F48FEF9FEF73
:1028C00018C0ED01EA81FB814191FB83EA83019706
:1028D000998788872C813D818E819F81820F931FEC
:1028E000E817F90710F03B832A83842F992787FD87
:1028F0009095DF91CF910895FC01808599270895E7
:10290000FC0180859185892B19F480E090E0089581
:102910000280F381E02D8081992708950F931F9302
:10292000CF93DF93DC01EC014885598541155105B2
:1029300021F1EA81FB810D911C91119770E01AC081
:102940008081861719F4862F992719C07F5F872FFA
:1029500099278417950788F49F012F5F3F4FED015A
:10296000EC81FD818E819F818E0F9F1F82179307BF
:1029700008F0F901E017F10719F780E090E0DF9126
:10298000CF911F910F910895882331F481E897E04A
:102990000E947C14992708958DE697E00E947C148C
:1029A000992708951F920F920FB60F9211242F931B
:1029B0003F934F935F936F937F938F939F93AF93C7
:1029C000BF93EF93FF938BE897E00E947C148823DA
:1029D00031F08BE897E00E94561480939C00FF91A1
:1029E000EF91BF91AF919F918F917F916F915F9187
:1029F0004F913F912F910F900FBE0F901F90189500
:102A00001F920F920FB60F9211242F933F934F9363
:102A10005F936F937F938F939F93AF93BF93EF9346
:102A2000FF9387E797E00E947C14882329F087E7CB
:102A300097E00E9456148CB9FF91EF91BF91AF912E
:102A40009F918F917F916F915F914F913F912F91C6
:102A50000F900FBE0F901F901895882329F481E8DE
:102A600097E00E94561408958DE697E00E94561450
:102A700008951F920F920FB60F9211242F933F9338
:102A80004F935F936F937F938F939F93AF93BF9376
:102A9000EF93FF9360919C0080919B0084FD04C0A4
:102AA0008DE697E00E943114FF91EF91BF91AF91B5
:102AB0009F918F917F916F915F914F913F912F9156
:102AC0000F900FBE0F901F9018951F920F920FB688
:102AD0000F9211242F933F934F935F936F937F93A4
:102AE0008F939F93AF93BF93EF93FF936CB15C99D8
:102AF00004C081E897E00E943114FF91EF91BF91EB
:102B0000AF919F918F917F916F915F914F913F9185
:102B10002F910F900FBE0F901F901895FF920F935B
:102B20001F93CF93DF93EB01042F4423E9F1FFB60A
:102B3000F8948823A9F136C0FE01E10FF11D6081F0
:102B400087E797E00E9431141F5F1017A9F75E9A7C
:102B50005D9BFECF87E797E00E9456148CB91AC0A0
:102B6000FE01E10FF11D60818BE897E00E943114B6
:102B70001F5F1017A9F780919B00806480939B00D2
:102B800080919B0085FFFCCF8BE897E00E94561454
:102B900080939C008FB790E8F9228F298FBF04C0E3
:102BA00010E0CACF10E0DCCFDF91CF911F910F91E1
:102BB000FF900895DF92EF92FF920F931F93D82E0C
:102BC0007A018B01F4E0EE0CFF1C001F111FFA9537
:102BD000D1F760E074E284EF90E0A80197010E94D1
:102BE0009425A80197015695479537952795621723
:102BF00073078407950748F060E074E284EF90E083
:102C0000A80197010E9494250AC060E074E284EF55
:102C100090E0A80197010E94942521503040832F15
:102C20009927DD20A1F48093900029B988ED8AB915
:102C300040E250E067EA71E081E897E00E942514E5
:102C400040E250E067EC71E087E797E029C08093AD
:102C500098002093990088ED80939A0080E290E09C
:102C60000E94E321909398078093970780E290E079
:102C70000E94E321909396078093950760919707B0
:102C80007091980742E050E08DE697E00E9425148D
:102C9000609195077091960742E050E08BE897E0CD
:102CA0000E9425141F910F91FF90EF90DF900895DF
:102CB0008F92AF92CF92EF920F93CF93DF93CDB7D6
:102CC000DEB7FC0186E0EE0FFF1F8A95E1F7EF58B3
:102CD000FD4FE60FF71F40AF20AB00A7E0A2C08E6C
:102CE000A08A80868A858083DF91CF910F91EF90B3
:102CF000CF90AF908F900895CF93DF93EC0140E099
:102D000050E00CC08D9181932F5F3F4F28303105EB
:102D1000C9F74F5F5F4F4830510509F1DE01E3E02D
:102D2000AA0FBB1FEA95E1F7A40FB51F33E0AA0F66
:102D3000BB1F3A95E1F7AF58BD4FFB0123E0EE0F03
:102D4000FF1F2A95E1F7E40FF51F93E0EE0FFF1F39
:102D50009A95E1F7EF50FE4F20E030E0D3CFDF91BE
:102D6000CF910895CF92DF92EF92FF920F931F932E
:102D7000CF93DF938C016B01EA0179018091EF0120
:102D80009091F001892B09F06BC040E050E009C040
:102D90008D9181932F5F3F4F28303105C9F74F5FE9
:102DA0005F4F88E090E08C1B9D0B481759070CF093
:102DB00053C0D80173E0AA0FBB1F7A95E1F7CE018B
:102DC000840F951FA80FB91F63E0AA0FBB1F6A9558
:102DD000E1F7AF58BD4FF70133E0EE0FFF1F3A9513
:102DE000E1F7E40FF51F23E0EE0FFF1F2A95E1F74F
:102DF000EF50FE4F20E030E0CBCF8D9181932F5FDD
:102E00003F4F28303105C9F74F5F5F4F6F5F7F4FEE
:102E10004C175D072CF5D60193E0AA0FBB1F9A95BE
:102E2000E1F7A40FB51F83E0AA0FBB1F8A95E1F756
:102E3000AF58BD4FF70103E0EE0FFF1F0A95E1F712
:102E4000E60FF71F13E0EE0FFF1F1A95E1F7EF50A3
:102E5000FE4F20E030E0D1CFBC0140E050E0D8CFC1
:102E6000DF91CF911F910F91FF90EF90DF90CF9066
:102E70000895AF92BF92CF92DF92EF92FF920F939D
:102E80001F93CF93DF9300E010E0A1E4AA2EA7E008
:102E9000BA2EF5E4CF2EF7E0DF2EC7EED1E0EBEE51
:102EA000EE2EE1E0FE2EF50180819181F601608138
:102EB00071818617970721F14881598198010E94F5
:102EC000B216F701808191810196918380832091D0
:102ED000560130915701281739072CF488819981C0
:102EE00001969983888388819981089764F0198273
:102EF0001882F60180819181F5019183808303C05E
:102F0000B8010E947C160F5F1F4F82E090E0A80E70
:102F1000B91EC80ED91E2296E80EF91E0230110500
:102F200011F6DF91CF911F910F91FF90EF90DF90FD
:102F3000CF90BF90AF900895DF92EF92FF920F93E2
:102F40001F93CF93DF93D82E7B01CAE3D1E0870193
:102F5000000F111FF801E65BFE4F60E080810E94C8
:102F600046018D2D99272881398182239323F801E9
:102F7000E25BFE4F1816190614F461E001C060E030
:102F800080810E9446018701000F111F065B1E4FC2
:102F900061E0F80180810E9446018AE090E00E9491
:102FA000F40060E0F80180810E9446012296F1E081
:102FB000CA34DF0761F6DF91CF911F910F91FF9027
:102FC000EF90DF9008954F925F926F927F928F9271
:102FD0009F92AF92BF92CF92DF92EF92FF920F93A8
:102FE0001F93CF93DF93AA24BB244AE4442E41E0ED
:102FF000542E3EE4632E31E0732E22E5C22E21E0F2
:10300000D22E8824992460E0F20180810E9446013A
:1030100060E0F30180810E9446018AE090E00E9416
:10302000F40060E0F60180810E9446018AE090E0B1
:103030000E94F400EE24FF2431C0B50189910E9462
:103040009C178AE090E00E94F4000F5F1F4F083049
:10305000110599F70894E11CF11CF8E0EF16F10452
:10306000E9F48AE090E00E94F40061E0F6018081DA
:103070000E9446010894A11CB11C88E090E0880ED3
:10308000991EE2E0F0E04E0E5F1E6E0E7F1ECE0E29
:10309000DF1EF2E0AF16B10471F0B5CFE401CE0D42
:1030A000DF1D93E0CC0FDD1F9A95E1F7CF50DE4F87
:1030B00000E010E0C2CFDF91CF911F910F91FF9000
:1030C000EF90DF90CF90BF90AF909F908F907F90C8
:1030D0006F905F904F900895EF92FF920F931F9320
:1030E000CF93DF93CAE4D1E05EE4E52E51E0F52E04
:1030F00002E511E061E088810E94000161E0F701D2
:1031000080810E94000161E0F80180810E9400013D
:10311000229682E090E0E80EF91E0E5F1F4F91E0CC
:10312000CE34D90739F7DF91CF911F910F91FF90DE
:10313000EF9008956F927F928F929F92AF92BF927D
:10314000CF92DF92EF92FF920F931F9360E070E0B7
:1031500080E091E40E94350D5B016C0160E070E05D
:1031600080E091E40E94350D7B018C0160E070E00D
:1031700080E091E40E94350D3B014C01C801B7018C
:103180000E9483247B018C01C601B5010E94832427
:10319000E3E0660F771FEA95E1F76F507E4FE60E8A
:1031A000F71EC401B3010E948324F70160831F91BD
:1031B0000F91FF90EF90DF90CF90BF90AF909F90D6
:1031C0008F907F906F9008950F931F938091330796
:1031D00090913407019662E070E00E9481259093FF
:1031E000340780933307009131071091320720E0B4
:1031F00030E048EC52E460E070E080E090E00E9453
:10320000610D0E9483242091580130915901C80119
:10321000860F971FB9010E948125909332078093F2
:10322000310710923607109235071F910F910895BC
:1032300080913507909136070196909336078093D9
:10324000350720915A0130915B012817390714F492
:103250000E94E4180895CF93DF93EC0166E070E0DC
:103260000E9481259093400780933F07823091050B
:10327000D9F0833091053CF4009779F081309105C5
:1032800009F056C023C084309105F1F084309105D7
:1032900094F0059709F04CC01EC01092460710929A
:1032A000450781E090E040C081E090E090934607C0
:1032B0008093450704C0109246071092450710926C
:1032C00048071092470734C082E090E09093460789
:1032D0008093450729C080914F0790915007C817E8
:1032E000D90719F00E94E41802C00E9418198091B1
:1032F0003307909134072091310730913207892BA1
:1033000051F4C901880F991F039690934607809343
:103310004507019609C0C901880F991F049690932B
:103320004607809345070197909348078093470786
:10333000D0935007C0934F07DF91CF91089586E057
:103340000E942A0140914A079927242F3327821788
:10335000930781F010924A07442319F481E0809387
:103360004A0780914C0790914D07019690934D0725
:1033700080934C0787E00E942A0140914B079927D0
:10338000242F33278217930781F010924B07442391
:1033900019F481E080934B0780914C0790914D0781
:1033A000019690934D0780934C0780914C07909124
:1033B0004D07409764F010924D0710924C0790E033
:1033C00080914E07882309F491E090934E078091F5
:1033D0004E07882319F080E090E002C082E090E080
:1033E0000E942B19089580E00E94080290933C07E8
:1033F00080933B076DEC70E00E94812570933E073F
:1034000060933D0785EA91E00E948A1320913D0771
:1034100030913E078091390790913A072817390774
:10342000C1F580913707909138070196909338073E
:103430008093370707978CF12330310509F1243049
:1034400031054CF42130310599F022303105ACF4CE
:10345000232B59F022C02530310551F0253031059C
:1034600094F026303105C9F411C081E090E002C02B
:1034700082E090E00E942B1910C00E949F190DC09D
:1034800085E090E0F7CF80E090E0F4CF83E090E03B
:10349000F1CF109238071092370780913D07909135
:1034A0003E0790933A078093390708950E94F319D5
:1034B0000E9439170E94E31708958F92AF92CF921E
:1034C000EF92FF920F931F9340E855E260E070E0A7
:1034D00085EA91E00E940E1461E08BE20E940001F7
:1034E00061E08CE20E94000161E080E30E94000143
:1034F00061E089E20E94000160E086E00E94000134
:1035000060E087E00E94000180E10E9408020E94C2
:103510008C0D20E030E046E153E460E070E080E0B4
:1035200090E00E94610D0E948324DC01CB01609138
:103530005801709159010E94812590933207809320
:10354000310761E080E30E9446010E946C181F92DF
:103550008824AA2492E0C92E82E0E82E02E020E02E
:1035600040E060E070E080E090E00E9458161F921A
:1035700020E040E061E070E080E090E00E945816BA
:103580001F92CC2400E020E040E062E070E080E0A8
:1035900090E00E9458161F9202E0A02E12E0C12E69
:1035A000B6E0EB2E02E022E040E063E070E080E075
:1035B00090E00E9458161F92AA24A6E0CA2E06E0A8
:1035C00020E040E064E070E080E090E00E94581667
:1035D0001F92F6E0AF2E26E040E065E070E080E06C
:1035E00090E00E9458161F92AA24E2E0CE2EEE240C
:1035F00002E020E040E066E070E080E090E00E94C1
:1036000058161F9220E040E067E070E080E090E014
:103610000E9458161F9272E0E72E20E040E060E022
:1036200070E081E090E00E9458161F9220E040E098
:1036300061E070E081E090E00E9458161F92CC2477
:1036400000E020E040E062E070E081E090E00E9475
:1036500058161F9262E0862E52E0A52E43E0C42E3B
:1036600033E0E32E03E022E042E063E070E081E03B
:1036700090E00E9458161F928824AA2420E040E07F
:1036800064E070E081E090E00E9458161F9220E014
:1036900040E065E070E081E090E00E9458161F92E3
:1036A00022E0C22EEE2402E020E040E066E070E07E
:1036B00081E090E00E9458161F9220E040E067E011
:1036C00070E081E090E00E9458161F9292E0A92ECF
:1036D00082E0E82E20E040E060E070E082E090E0F0
:1036E0000E9458161F9220E040E061E070E082E006
:1036F00090E00E9458161F92AA2400E020E040E0CB
:1037000062E070E082E090E00E9458161F9202E0B2
:10371000802E13E0A12EB3E0CB2EA6E0EA2E02E02D
:1037200022E040E063E070E082E090E00E94581602
:103730001F92882406E020E040E064E070E082E030
:1037400090E00E9458161F9226E040E065E070E08D
:1037500082E090E00E9458161F92F2E0AF2ECC2437
:10376000EE2402E020E040E066E070E082E090E0DD
:103770000E9458161F9220E040E067E070E082E06F
:1037800090E00E9458161F92AA2400E020E040E03A
:1037900060E070E083E090E00E9458161F9224E001
:1037A00040E061E070E083E090E00E9458161F92D4
:1037B00004E024E040E062E070E083E090E00E94FA
:1037C00058161F92E4E0EE2E24E040E063E070E043
:1037D00083E090E00E9458161F9274E0C72E24E008
:1037E00040E064E070E083E090E00E9458161F9291
:1037F00064E0A62E24E040E065E070E083E090E025
:103800000E9458161F9254E0852E24E040E066E0A6
:1038100070E083E090E00E9458161F928824AA244A
:10382000CC24EE2400E020E040E067E070E083E09C
:1038300090E00E9458168DB79EB780960FB6F89408
:103840009EBF0FBE8DBF1F9220E040E060E070E0A1
:1038500084E090E00E9458161F9245E0C42E35E0A7
:10386000E32E20E040E061E070E084E090E00E9420
:1038700058161F9225E0A22E05E020E040E062E00D
:1038800070E084E090E00E9458161F9295E0892E27
:1038900025E040E063E070E084E090E00E9458168C
:1038A0001F9225E040E064E070E084E090E00E9438
:1038B00058161F92882420E040E065E070E084E024
:1038C00090E00E9458161F92AA2400E020E040E0F9
:1038D00066E070E084E090E00E9458161F92CC24CD
:1038E000EE2420E040E067E070E084E090E00E9499
:1038F000581617E01F9320E047E060E070E085E095
:1039000090E00E9458161F9287E0882E27E040E042
:1039100061E070E085E090E00E9458161F928824D4
:10392000B7E0AB2E07E020E040E062E070E085E029
:1039300090E00E9458161F92AA24A7E0CA2EF7E032
:10394000EF2E00E020E040E063E070E085E090E0F2
:103950000E9458161F9220E040E064E070E085E08D
:1039600090E00E9458161F92E7E0AE2ECC24EE2481
:1039700007E020E040E065E070E085E090E00E9434
:1039800058161F9277E0872EAA2400E027E040E037
:1039900066E070E085E090E00E9458161F9388244E
:1039A00020E047E067E070E085E090E00E94581674
:1039B0001F9220E040E060E070E086E090E00E942E
:1039C00058161F9263E0862E53E0A52E03E023E0F5
:1039D00040E061E070E086E090E00E94581613E05D
:1039E0001F9343E0C42E33E0E32E23E043E062E084
:1039F00070E086E090E00E9458161F9323E043E0B9
:103A000063E070E086E090E00E9458161F9223E089
:103A100040E064E070E086E090E00E9458161F925B
:103A2000882420E040E065E070E086E090E00E94BD
:103A300058161F92AA2400E020E040E066E070E003
:103A400086E090E00E9458161F92CC24EE2420E0DD
:103A500040E067E070E086E090E00E9458161F9218
:103A600020E040E060E070E087E090E00E945816BF
:103A70001F9225E0822E95E0A92E85E0C82E05E054
:103A8000E02E05E025E040E061E070E087E090E0B6
:103A90000E9458161F92AA24CC24EE2400E025E0B0
:103AA00040E062E070E087E090E00E9458161F92CC
:103AB00025E040E063E070E087E090E00E94581667
:103AC0001F9225E040E064E070E087E090E00E9413
:103AD00058161F9225E040E065E070E087E090E036
:103AE0000E9458161F92B5E0AB2EA5E0CA2EF5E055
:103AF000EF2E05E025E040E066E070E087E090E032
:103B00000E9458161F928824AA24CC24EE2400E098
:103B100020E040E067E070E087E090E00E94581607
:103B20008DB79EB780960FB6F8949EBF0FBE8DBF1F
:103B30001F9220E040E060E070E088E090E00E94AA
:103B4000581681E08F93E1E08E2E71E0A72E61E0A0
:103B5000C62E51E0E52E01E021E041E061E070E099
:103B600088E090E00E94581644E0F42EFF9234E082
:103B7000832E24E0A22E94E0C92E84E0E82E04E0F7
:103B800024E044E062E070E088E090E00E94581693
:103B900082E08F9302E0802EB2E0AB2EA2E0CA2E2C
:103BA000F2E0EF2E02E022E042E063E070E088E025
:103BB00090E00E94581685E08F93E5E08E2E75E028
:103BC000A72E65E0C62E55E0E52E05E025E045E090
:103BD00064E070E088E090E00E9458161F9343E094
:103BE000842E33E0A32E23E0C22E93E0E92E03E0DF
:103BF00023E043E065E070E088E090E00E94581622
:103C000086E08F9386E0882E06E0A02E16E0C12E77
:103C1000B6E0EB2E06E026E046E066E070E088E0E5
:103C200090E00E9458161F928824AA24CC24EE24E7
:103C300000E020E040E067E070E088E090E00E9473
:103C400058161F9220E040E060E070E089E090E0CC
:103C50000E9458161F92A4E0AA2E04E020E040E043
:103C600061E070E089E090E00E9458161F9220E029
:103C700040E062E070E089E090E00E9458161F92F8
:103C800020E040E063E070E089E090E00E94581698
:103C9000FF92AA2400E020E044E064E070E089E0C4
:103CA00090E00E9458161F92F4E08F2E24E040E02E
:103CB00065E070E089E090E00E9458161F92882429
:103CC000E4E0AE2E74E0C72E64E0E62E04E020E0CF
:103CD00040E066E070E089E090E00E9458161F9294
:103CE000AA24CC24EE2400E020E040E067E070E06D
:103CF00089E090E00E9458161F9220E040E060E0CA
:103D000070E08AE090E00E9458161F9254E0A52EC1
:103D100004E020E040E061E070E08AE090E00E9492
:103D200058161F9220E040E062E070E08AE090E0E8
:103D30000E9458161F9220E040E063E070E08AE0A5
:103D400090E00E9458161F92AA2400E020E040E074
:103D500064E070E08AE090E00E9458161F9244E010
:103D6000A42E34E0C32E24E0E22E04E020E040E064
:103D700065E070E08AE090E00E9458161F9294E09F
:103D8000892EAA24CC24EE2400E024E040E066E062
:103D900070E08AE090E00E94581684E08F938824B7
:103DA00020E044E067E070E08AE090E00E9458166E
:103DB0001F9282E0C82E02E0E02E02E020E040E008
:103DC00060E070E08BE090E00E9458161F9220E0C7
:103DD00040E061E070E08BE090E00E9458161F9296
:103DE000CC2400E020E040E062E070E08BE090E076
:103DF0000E9458161F9212E0A12EB6E0CB2EA6E02C
:103E0000EA2E02E022E040E063E070E08BE090E028
:103E10000E9458161F92F6E08F2EE6E0AE2E06E0C6
:103E200020E040E064E070E08BE090E00E945816F3
:103E30001F92882472E0A72ECC2426E040E065E0A3
:103E400070E08BE090E00E9458161F92EE2402E092
:103E500020E040E066E070E08BE090E00E945816C1
:103E60001F92AA2420E040E067E070E08BE090E041
:103E70000E9458168DB79EB780960FB6F8949EBFD5
:103E80000FBE8DBF1F9220E040E067E070E08CE045
:103E900090E00E9458161F9220E040E066E070E03B
:103EA0008CE090E00E9458161F9263E0E62E03E03B
:103EB00020E040E065E070E08CE090E00E94581661
:103EC0001F9252E0852E42E0A42E32E0C32E20E065
:103ED00040E064E070E08CE090E00E9458161F9291
:103EE0008824AA2423E0C22E22E042E063E070E0AE
:103EF0008CE090E00E9458161F9292E0C92E02E0DA
:103F000020E040E062E070E08CE090E00E94581613
:103F10001F9282E0A82ECC2412E0E12E22E040E0A5
:103F200061E070E08CE090E00E9458161F92AA2495
:103F300022E040E060E070E08CE090E00E945816E3
:103F40001F92B5E0AB2EA5E0CA2EF5E0EF2E05E0FE
:103F500020E040E060E070E08DE090E00E945816C4
:103F60001F92E5E08E2E25E040E061E070E08DE0FC
:103F700090E00E9458161F92CC24EE2425E040E0E9
:103F800062E070E08DE090E00E9458161F92882455
:103F900075E0C72E00E020E040E063E070E08DE0D7
:103FA00090E00E9458161F92AA2465E0E62E20E0B9
:103FB00040E064E070E08DE090E00E9458161F92AF
:103FC000CC24EE2420E040E065E070E08DE090E05D
:103FD0000E9458161F9255E0C52E45E0E42E20E0C1
:103FE00040E066E070E08DE090E00E9458161F927D
:103FF00020E040E067E070E08DE090E00E9458161D
:104000001F9220E040E060E070E08EE090E00E94CF
:1040100058161F9220E040E061E070E08EE090E0F2
:104020000E9458161F9220E040E062E070E08EE0AF
:1040300090E00E9458161F9220E040E063E070E09C
:104040008EE090E00E9458161F9220E040E064E06D
:1040500070E08EE090E00E9458161F92CC24EE246F
:1040600020E040E065E070E08EE090E00E945816AD
:104070001F9235E0C32E25E0E22E20E040E066E00E
:1040800070E08EE090E00E9458161F9220E040E021
:1040900067E070E08EE090E00E9458161F92CC24FA
:1040A00091E0E92E20E040E060E070E08FE090E0F9
:1040B0000E94581682E08F9382E0A82E01E0C02E65
:1040C00001E020E040E061E070E08FE090E00E94DD
:1040D00058161F9212E0812EB2E0CB2E21E040E074
:1040E00062E070E08FE090E00E9458161F9203E0BB
:1040F00021E040E063E070E08FE090E00E9458161D
:104100001F92A4E08A2EF4E0CF2EE3E0EE2E23E00F
:1041100040E064E070E08FE090E00E9458161F924B
:10412000882474E0A72E64E0E62E23E043E065E0F7
:1041300070E08FE090E00E9458161F9220E043E06C
:1041400066E070E08FE090E00E9458161F92AA246B
:10415000EE2400E020E040E067E070E08FE090E0D7
:104160000E9458168DB79EB780960FB6F8949EBFE2
:104170000FBE8DBF1F9255E0A52E45E0C42E20E056
:1041800040E060E070E080E190E00E9458161F92ED
:10419000AA2435E0E32E20E040E061E070E080E119
:1041A00090E00E9458161F9225E0822E95E0A92EDD
:1041B000CC24EE2405E025E040E062E070E080E100
:1041C00090E00E94581615E01F9385E0C82EB5E0D8
:1041D000EB2E25E045E063E070E080E190E00E9496
:1041E00058161F9225E045E064E070E080E190E021
:1041F0000E9458161F9325E045E065E070E080E1DD
:1042000090E00E9458161F9225E040E066E070E0C2
:1042100080E190E00E9458161F92882420E040E040
:1042200067E070E080E190E00E9458161F92AA2497
:10423000A2E0CA2EF2E0EF2E02E020E040E060E0D3
:1042400070E081E190E00E9458161F9220E040E06B
:1042500061E070E081E190E00E9458161F92CC244A
:1042600000E020E040E062E070E081E190E00E9448
:1042700058161F92E2E0AE2E72E0C72E63E0E62EE3
:1042800002E022E040E063E070E081E190E00E9423
:1042900058161F92AA2453E0C52E03E020E040E008
:1042A00064E070E081E190E00E9458161F9243E0C4
:1042B000A42E23E040E065E070E081E190E00E9400
:1042C00058161F92AA2432E0C32EEE2402E020E00A
:1042D00040E066E070E081E190E00E9458161F9295
:1042E00020E040E067E070E081E190E00E94581635
:1042F0001F9222E0E22E20E040E060E070E082E1E8
:1043000090E00E9458161F9220E040E061E070E0CB
:1043100082E190E00E9458161F92CC2400E020E039
:1043200040E062E070E082E190E00E9458161F9247
:1043300092E0892E82E0A82E06E0C02E16E0E12E43
:1043400006E022E042E063E070E082E190E00E945B
:1043500058161F928824AA2420E040E064E070E010
:1043600082E190E00E9458161F9220E040E065E054
:1043700070E082E190E00E9458161F92B2E0CB2ECE
:10438000EE2402E020E040E066E070E082E190E0B0
:104390000E9458161F9220E040E067E070E082E142
:1043A00090E00E9458168DB79EB748960FB6F894C5
:1043B0009EBF0FBE8DBF1F910F91FF90EF90CF90CA
:1043C000AF908F900895CF93DF93AC01029710F4D4
:1043D00042E050E0A0919B07B0919C07FD01C0E036
:1043E000D0E020E030E020C08081918184179507E3
:1043F00069F482819381209719F09B838A8304C09A
:1044000090939C0780939B07CF0132C048175907B0
:1044100038F42115310519F08217930708F49C012F
:10442000EF010280F381E02D3097F1F6211531057F
:1044300089F1C901841B950B049708F4A901E0E0F8
:10444000F0E026C08D919C91119782179307E9F4B3
:104450004817590779F4ED018A819B81309719F04B
:104460009383828304C090939C0780939B07CD0124
:10447000029649C0841B950BFD01E80FF91F41937B
:10448000519302978D939C933AC0FD01A281B38111
:104490001097C1F68091990790919A07892B41F462
:1044A000809160019091610190939A0780939907A0
:1044B00020916201309163012115310541F42DB73E
:1044C0003EB780915E0190915F01281B390BE0910E
:1044D0009907F0919A072E1B3F0B2417350788F098
:1044E000CA0102962817390760F0CF01840F951F83
:1044F000029690939A078093990741935193CF0125
:1045000002C080E090E0DF91CF910895CF93DF93D8
:10451000009709F44EC0EC0122971B821A82A091E9
:104520009B07B0919C07109711F140E050E001C04B
:10453000DC01AC17BD0700F1BB83AA83FE0121910A
:104540003191E20FF31FEA17FB0771F42E5F3F4F23
:104550008D919C911197820F931F99838883FD0100
:10456000828193819B838A834115510559F4D093AD
:104570009C07C0939B071DC0FD0182819381AD0103
:104580000097B1F6FA01D383C28321913191E20FF2
:10459000F31FEC17FD0769F42E5F3F4F8881998167
:1045A000820F931FFA01918380838A819B81938379
:1045B0008283DF91CF910895AF92BF92CF92DF9225
:1045C000EF92FF920F931F93CF93DF93EC01E8805C
:1045D000F9800A811B81C801B7012DE133EF41E069
:1045E00050E00E94942527EA31E440E050E00E9428
:1045F00062255B016C01C801B7012DE133EF41E099
:1046000050E00E949425CA01B90124E13BE040E05A
:1046100050E00E946225A61AB70AC80AD90A1A14DD
:104620001B041C041D0444F08FEF9FEFAFEFBFE7A6
:10463000A80EB91ECA1EDB1EA882B982CA82DB82FE
:10464000C5019F77DF91CF911F910F91FF90EF9060
:10465000DF90CF90BF90AF9008950E94DC22089524
:1046600084E691E00E94DC220895AA27BB2780936C
:10467000640190936501A0936601B093670108956A
:104680006817790768F4FB01DC01E40FF51FA40F3C
:10469000B51F02C002900E9241505040D8F70895C5
:1046A0000C94E123FB01DC010D900020E9F7119748
:1046B00001900D920020E1F70895FC01019006168B
:1046C00029F00020D9F78827992708953197CF013D
:1046D0000895FB01DC018D910190801911F40020F7
:1046E000D1F7990B0895FB01DC014150504030F0A7
:1046F0008D910190801919F40020B9F7881B990B4E
:104700000895FB01DC014150504048F001900D92AA
:104710000020C9F701C01D9241505040E0F70895B4
:10472000DC01FB014191442309F40895FB0141910F
:104730002D91222369F02417CD01D1F74191442313
:1047400051F02C91222321F0241781F71196F6CFF6
:1047500088279927089501970895FA01CF93FF9329
:10476000EF93223044F1253234F5C22FE894CA3059
:1047700049F497FB3EF490958095709561957F4F35
:104780008F4F9F4F2C2F332744275527FF93EF93AD
:104790000E949425EF91FF91605D6A330CF0695D92
:1047A0006193B901CA01605070408040904051F758
:1047B00016F4CDE2C19310828F919F91CF910C940A
:1047C000EA23FB01DC0102C001900D9241505040F0
:1047D000D8F70895DC01FC0101900020E9F7329739
:1047E000AE17BF0730F47C916081708331976D9371
:1047F000F7CF08955058192EEFD001D0D2C0BA1774
:104800006207730784079507B1F188F40EF41094DA
:104810000B2EBA2FA02D062E622F202D072E732FC0
:10482000302D082E842F402D092E952F502DFF2737
:104830005523B9F0591B49F0573E98F046953795E6
:104840002795A795F0405395C9F776F0BA0F621FE8
:10485000731F841F30F4879577956795B795F0405F
:10486000939517FA0F2E0895BF1BBB27BA0B620B47
:10487000730B840BF6CFDEF6DBC0AED001D091C057
:10488000552359F0992369F09F575F57951B33F4CF
:1048900042F4903811F4915805C09BC091589F3F45
:1048A00009F4C6C0BB27112462177307840730F4CC
:1048B000660F771F881FBB1F915098F311D00F927E
:1048C0000FD00F920DD0A0E82617370748071B0618
:1048D00009F0A048BA2F602D7F918F910024089590
:1048E000A0E80024621773078407B10528F0621B53
:1048F000730B840BB1090A2A660F771F881FBB1F31
:10490000A69581F7089597FB73D09F3738F0FEE99D
:10491000F91B982F872F762F6B2F05C086C0969591
:10492000879577956795F150D0F73EF490958095EF
:10493000709561957F4F8F4F9F4F0895E89403C006
:1049400097FB0EF4F3DFB62F672F782F892F9EE9A0
:10495000002427C00ED05EF004C00BD026F001C0AA
:1049600008D019F020F48FEF089580E0089581E0D9
:10497000089597FB092E052600F8689430D0E89436
:1049800007FC07C0621773078407950721F008F436
:1049900000940794989408959A95BB0F661F771F0B
:1049A000881F11249923A1F08823B2F79F3F59F063
:1049B000BB0F48F421F4002011F460FF04C06F5FC6
:1049C0007F4F8F4F9F4F881F9795879597F9089531
:1049D0002CC09FEF80EC0895052E092607FA440F9E
:1049E000551F5F3F79F0AA27A51708F051E04795BA
:1049F000880F991F9F3F31F0BB27B91708F091E04E
:104A0000879508959F919F911124E3CF97FB880F7D
:104A1000991F9F3F31F0BB27B91708F091E08795A8
:104A200008959F919F911124D4CF662777278827D7
:104A300099270895D1DF01D0B4CF992339F05523B8
:104A400029F09F575F57950F13F49AF1F1CF9158C2
:104A50009F3FE1F3629FA12D0F92BB27639FA00DA3
:104A6000B11DEE27729FA00DB11DEE1FAF93AA27B7
:104A7000649FB00DE11D739FB00DE11DAA1F662755
:104A8000829FB00DE11DA61F5527749FE00DA11D4B
:104A9000551F839FE00DA11D561F849FA00D511D22
:104AA000852F7A2F6E2F1F900F9088231AF49395DD
:104AB00039F48FCF000C111CBB1F661F771F881F96
:104AC00001280895629FD001739FF001829FE00D3D
:104AD000F11D649FE00DF11D929FF00D839FF00D7D
:104AE000749FF00D659FF00D9927729FB00DE11D29
:104AF000F91F639FB00DE11DF91FBD01CF01112406
:104B0000089597FB092E07260AD077FD04D049D0D7
:104B100006D000201AF4709561957F4F0895F6F73E
:104B2000909581959F4F0895A1E21A2EAA1BBB1B59
:104B3000FD010DC0AA1FBB1FEE1FFF1FA217B30769
:104B4000E407F50720F0A21BB30BE40BF50B661F7F
:104B5000771F881F991F1A9469F760957095809543
:104B600090959B01AC01BD01CF01089597FB092EE3
:104B700005260ED057FD04D0D7DF0AD0001C38F42C
:104B800050954095309521953F4F4F4F5F4F089579
:104B9000F6F790958095709561957F4F8F4F9F4F59
:104BA0000895AA1BBB1B51E107C0AA1FBB1FA61774
:104BB000B70710F0A61BB70B881F991F5A95A9F7C6
:104BC00080959095BC01CD010895EE0FFF1F0590D3
:104BD000F491E02D09948F930CD08F9109F08062AD
:104BE00008958F9306D08F9109F08F7D089585FDEC
:104BF00008C08062911105C08136ECF38B37DCF779
:0A4C00000895992788270895FFCF33
:104C0A000102040810204080320035003B003800C1
:104C1A00230062006500310034003A0037002200A8
:104C2A0061006400300033003900360021002000A2
:104C3A00630001201008804020008000400020000E
:104C4A001000080004000200010002000500010033
:104C5A0004000000030013000800A406010020005D
:084C6A009D070000010000009D
:00000001FF
